{
  "_format": "hh-sol-artifact-1",
  "contractName": "dummy",
  "sourceName": "contracts/dummy.sol",
  "abi": [
    {
      "anonymous": false,
      "inputs": [
        {
          "indexed": false,
          "internalType": "address",
          "name": "sender",
          "type": "address"
        },
        {
          "indexed": false,
          "internalType": "address",
          "name": "receiver",
          "type": "address"
        },
        {
          "indexed": false,
          "internalType": "int256",
          "name": "amount",
          "type": "int256"
        }
      ],
      "name": "fundTransferred",
      "type": "event"
    },
    {
      "anonymous": false,
      "inputs": [
        {
          "indexed": false,
          "internalType": "address",
          "name": "sender",
          "type": "address"
        },
        {
          "indexed": false,
          "internalType": "address",
          "name": "receiver",
          "type": "address"
        },
        {
          "indexed": false,
          "internalType": "uint256",
          "name": "timestamp",
          "type": "uint256"
        },
        {
          "indexed": false,
          "internalType": "string",
          "name": "message",
          "type": "string"
        }
      ],
      "name": "newMessageAdded",
      "type": "event"
    },
    {
      "anonymous": false,
      "inputs": [
        {
          "indexed": false,
          "internalType": "address",
          "name": "_address",
          "type": "address"
        },
        {
          "indexed": false,
          "internalType": "string",
          "name": "username",
          "type": "string"
        },
        {
          "indexed": false,
          "internalType": "string",
          "name": "password",
          "type": "string"
        },
        {
          "indexed": false,
          "internalType": "string",
          "name": "privateKey",
          "type": "string"
        },
        {
          "indexed": false,
          "internalType": "string",
          "name": "mnemonic",
          "type": "string"
        }
      ],
      "name": "userAdded",
      "type": "event"
    },
    {
      "inputs": [
        {
          "internalType": "address",
          "name": "_address",
          "type": "address"
        },
        {
          "internalType": "string",
          "name": "username",
          "type": "string"
        },
        {
          "internalType": "string",
          "name": "password",
          "type": "string"
        },
        {
          "internalType": "string",
          "name": "privateKey",
          "type": "string"
        },
        {
          "internalType": "string",
          "name": "mnemonic",
          "type": "string"
        }
      ],
      "name": "addNewUserToBlockChain",
      "outputs": [],
      "stateMutability": "nonpayable",
      "type": "function"
    },
    {
      "inputs": [
        {
          "internalType": "string",
          "name": "key",
          "type": "string"
        },
        {
          "internalType": "string",
          "name": "content",
          "type": "string"
        }
      ],
      "name": "addToCollections",
      "outputs": [],
      "stateMutability": "nonpayable",
      "type": "function"
    },
    {
      "inputs": [
        {
          "internalType": "uint256",
          "name": "",
          "type": "uint256"
        }
      ],
      "name": "arrayOfMessages",
      "outputs": [
        {
          "internalType": "address",
          "name": "sender",
          "type": "address"
        },
        {
          "internalType": "address",
          "name": "receiver",
          "type": "address"
        },
        {
          "internalType": "uint256",
          "name": "timestamp",
          "type": "uint256"
        },
        {
          "internalType": "string",
          "name": "message",
          "type": "string"
        }
      ],
      "stateMutability": "view",
      "type": "function"
    },
    {
      "inputs": [
        {
          "internalType": "string",
          "name": "content",
          "type": "string"
        }
      ],
      "name": "arrayOfStrings",
      "outputs": [],
      "stateMutability": "nonpayable",
      "type": "function"
    },
    {
      "inputs": [
        {
          "internalType": "uint256",
          "name": "",
          "type": "uint256"
        }
      ],
      "name": "arrayOfUserFunds",
      "outputs": [
        {
          "internalType": "address",
          "name": "_address",
          "type": "address"
        },
        {
          "internalType": "int256",
          "name": "amount",
          "type": "int256"
        }
      ],
      "stateMutability": "view",
      "type": "function"
    },
    {
      "inputs": [
        {
          "internalType": "uint256",
          "name": "",
          "type": "uint256"
        }
      ],
      "name": "arrayOfUsers",
      "outputs": [
        {
          "internalType": "address",
          "name": "_address",
          "type": "address"
        },
        {
          "internalType": "string",
          "name": "username",
          "type": "string"
        },
        {
          "internalType": "string",
          "name": "password",
          "type": "string"
        },
        {
          "internalType": "string",
          "name": "privateKey",
          "type": "string"
        },
        {
          "internalType": "string",
          "name": "mnemonic",
          "type": "string"
        }
      ],
      "stateMutability": "view",
      "type": "function"
    },
    {
      "inputs": [
        {
          "internalType": "uint256",
          "name": "",
          "type": "uint256"
        }
      ],
      "name": "arrayStrings",
      "outputs": [
        {
          "internalType": "string",
          "name": "",
          "type": "string"
        }
      ],
      "stateMutability": "view",
      "type": "function"
    },
    {
      "inputs": [
        {
          "internalType": "string",
          "name": "",
          "type": "string"
        },
        {
          "internalType": "uint256",
          "name": "",
          "type": "uint256"
        }
      ],
      "name": "collections",
      "outputs": [
        {
          "internalType": "string",
          "name": "",
          "type": "string"
        }
      ],
      "stateMutability": "view",
      "type": "function"
    },
    {
      "inputs": [
        {
          "internalType": "address",
          "name": "_address",
          "type": "address"
        }
      ],
      "name": "getAddressBalance",
      "outputs": [
        {
          "internalType": "uint256",
          "name": "",
          "type": "uint256"
        }
      ],
      "stateMutability": "view",
      "type": "function"
    },
    {
      "inputs": [],
      "name": "getAllMessages",
      "outputs": [
        {
          "components": [
            {
              "internalType": "address",
              "name": "sender",
              "type": "address"
            },
            {
              "internalType": "address",
              "name": "receiver",
              "type": "address"
            },
            {
              "internalType": "uint256",
              "name": "timestamp",
              "type": "uint256"
            },
            {
              "internalType": "string",
              "name": "message",
              "type": "string"
            }
          ],
          "internalType": "struct dummy.message[]",
          "name": "",
          "type": "tuple[]"
        }
      ],
      "stateMutability": "view",
      "type": "function"
    },
    {
      "inputs": [],
      "name": "getAllUsersFromBlockChain",
      "outputs": [
        {
          "components": [
            {
              "internalType": "address",
              "name": "_address",
              "type": "address"
            },
            {
              "internalType": "string",
              "name": "username",
              "type": "string"
            },
            {
              "internalType": "string",
              "name": "password",
              "type": "string"
            },
            {
              "internalType": "string",
              "name": "privateKey",
              "type": "string"
            },
            {
              "internalType": "string",
              "name": "mnemonic",
              "type": "string"
            }
          ],
          "internalType": "struct dummy.users[]",
          "name": "",
          "type": "tuple[]"
        }
      ],
      "stateMutability": "view",
      "type": "function"
    },
    {
      "inputs": [],
      "name": "getArrayOfStrings",
      "outputs": [
        {
          "internalType": "string[]",
          "name": "",
          "type": "string[]"
        }
      ],
      "stateMutability": "view",
      "type": "function"
    },
    {
      "inputs": [
        {
          "internalType": "address",
          "name": "_address",
          "type": "address"
        }
      ],
      "name": "getBalanceFromBlockChain",
      "outputs": [
        {
          "internalType": "int256",
          "name": "",
          "type": "int256"
        }
      ],
      "stateMutability": "view",
      "type": "function"
    },
    {
      "inputs": [
        {
          "internalType": "string",
          "name": "key",
          "type": "string"
        }
      ],
      "name": "getCollections",
      "outputs": [
        {
          "internalType": "string[]",
          "name": "",
          "type": "string[]"
        }
      ],
      "stateMutability": "view",
      "type": "function"
    },
    {
      "inputs": [
        {
          "internalType": "address",
          "name": "_address",
          "type": "address"
        }
      ],
      "name": "getFunds",
      "outputs": [
        {
          "internalType": "int256",
          "name": "",
          "type": "int256"
        }
      ],
      "stateMutability": "nonpayable",
      "type": "function"
    },
    {
      "inputs": [],
      "name": "getMessageSender",
      "outputs": [
        {
          "internalType": "address",
          "name": "",
          "type": "address"
        }
      ],
      "stateMutability": "view",
      "type": "function"
    },
    {
      "inputs": [],
      "name": "getSystemBalance",
      "outputs": [
        {
          "internalType": "uint256",
          "name": "",
          "type": "uint256"
        }
      ],
      "stateMutability": "view",
      "type": "function"
    },
    {
      "inputs": [
        {
          "internalType": "address",
          "name": "_address",
          "type": "address"
        }
      ],
      "name": "getUserFromBlockChain",
      "outputs": [
        {
          "components": [
            {
              "internalType": "address",
              "name": "_address",
              "type": "address"
            },
            {
              "internalType": "string",
              "name": "username",
              "type": "string"
            },
            {
              "internalType": "string",
              "name": "password",
              "type": "string"
            },
            {
              "internalType": "string",
              "name": "privateKey",
              "type": "string"
            },
            {
              "internalType": "string",
              "name": "mnemonic",
              "type": "string"
            }
          ],
          "internalType": "struct dummy.users",
          "name": "",
          "type": "tuple"
        }
      ],
      "stateMutability": "view",
      "type": "function"
    },
    {
      "inputs": [],
      "name": "getUsersWithFunds",
      "outputs": [
        {
          "components": [
            {
              "internalType": "address",
              "name": "_address",
              "type": "address"
            },
            {
              "internalType": "int256",
              "name": "amount",
              "type": "int256"
            }
          ],
          "internalType": "struct dummy.userFunds[]",
          "name": "",
          "type": "tuple[]"
        }
      ],
      "stateMutability": "nonpayable",
      "type": "function"
    },
    {
      "inputs": [
        {
          "internalType": "address",
          "name": "",
          "type": "address"
        }
      ],
      "name": "mapOfUsers",
      "outputs": [
        {
          "internalType": "address",
          "name": "_address",
          "type": "address"
        },
        {
          "internalType": "string",
          "name": "username",
          "type": "string"
        },
        {
          "internalType": "string",
          "name": "password",
          "type": "string"
        },
        {
          "internalType": "string",
          "name": "privateKey",
          "type": "string"
        },
        {
          "internalType": "string",
          "name": "mnemonic",
          "type": "string"
        }
      ],
      "stateMutability": "view",
      "type": "function"
    },
    {
      "inputs": [
        {
          "internalType": "address",
          "name": "sender",
          "type": "address"
        },
        {
          "internalType": "address",
          "name": "receiver",
          "type": "address"
        },
        {
          "internalType": "string",
          "name": "_message",
          "type": "string"
        }
      ],
      "name": "sendMessage",
      "outputs": [],
      "stateMutability": "nonpayable",
      "type": "function"
    },
    {
      "inputs": [
        {
          "internalType": "string",
          "name": "_message",
          "type": "string"
        }
      ],
      "name": "testModifier",
      "outputs": [
        {
          "internalType": "string",
          "name": "",
          "type": "string"
        }
      ],
      "stateMutability": "pure",
      "type": "function"
    },
    {
      "inputs": [
        {
          "internalType": "address",
          "name": "sender",
          "type": "address"
        },
        {
          "internalType": "address",
          "name": "receiver",
          "type": "address"
        },
        {
          "internalType": "int256",
          "name": "amount",
          "type": "int256"
        }
      ],
      "name": "tranferFund",
      "outputs": [],
      "stateMutability": "nonpayable",
      "type": "function"
    }
  ],
  "bytecode": "0x608060405234801561001057600080fd5b50613307806100206000396000f3fe608060405234801561001057600080fd5b506004361061014d5760003560e01c806359795eee116100c3578063a6bed0c51161007c578063a6bed0c5146103e3578063ada8f3ff14610413578063ade3c4031461042f578063b88e318d1461045f578063c7f4c1411461047b578063decebbce146104ae5761014d565b806359795eee14610321578063737a09961461033d57806375e0776e1461036d57806376167a891461038b5780638144801e146103a957806385939256146103c75761014d565b80633504672211610115578063350467221461022157806339b4a493146102515780633e3466911461028157806353f5e380146102b157806356443a72146102cf57806357f1eb5b146102ed5761014d565b8063090d44e51461015257806321f4ae1414610183578063257931a7146101a15780632fa9ef35146101d557806332bfc54114610205575b600080fd5b61016c6004803603810190610167919061255f565b6104de565b60405161017a929190612b71565b60405180910390f35b61018b610532565b6040516101989190612d30565b60405180910390f35b6101bb60048036038101906101b6919061255f565b61053a565b6040516101cc959493929190612b9a565b60405180910390f35b6101ef60048036038101906101ea919061255f565b6107c0565b6040516101fc9190612cac565b60405180910390f35b61021f600480360381019061021a9190612387565b61086c565b005b61023b600480360381019061023691906122a8565b610b11565b6040516102489190612d30565b60405180910390f35b61026b6004803603810190610266919061245e565b610b32565b6040516102789190612cac565b60405180910390f35b61029b6004803603810190610296919061250b565b610be2565b6040516102a89190612cac565b60405180910390f35b6102b9610cb1565b6040516102c69190612c2b565b60405180910390f35b6102d7610e58565b6040516102e49190612c6f565b60405180910390f35b610307600480360381019061030291906122a8565b611155565b604051610318959493929190612b9a565b60405180910390f35b61033b600480360381019061033691906122d1565b6113cb565b005b6103576004803603810190610352919061245e565b61153d565b6040516103649190612c09565b60405180910390f35b610375611634565b6040516103829190612c4d565b60405180910390f35b610393611989565b6040516103a09190612ad3565b60405180910390f35b6103b1611991565b6040516103be9190612c09565b60405180910390f35b6103e160048036038101906103dc919061245e565b611a6a565b005b6103fd60048036038101906103f891906122a8565b611aa9565b60405161040a9190612d0e565b60405180910390f35b61042d6004803603810190610428919061249f565b611da0565b005b610449600480360381019061044491906122a8565b611dfc565b6040516104569190612c91565b60405180910390f35b61047960048036038101906104749190612320565b611e45565b005b6104956004803603810190610490919061255f565b611fb6565b6040516104a59493929190612b25565b60405180910390f35b6104c860048036038101906104c391906122a8565b6120be565b6040516104d59190612c91565b60405180910390f35b600581815481106104ee57600080fd5b90600052602060002090600202016000915090508060000160009054906101000a900473ffffffffffffffffffffffffffffffffffffffff16908060010154905082565b600047905090565b6004818154811061054a57600080fd5b90600052602060002090600502016000915090508060000160009054906101000a900473ffffffffffffffffffffffffffffffffffffffff16908060010180546105939061306d565b80601f01602080910402602001604051908101604052809291908181526020018280546105bf9061306d565b801561060c5780601f106105e15761010080835404028352916020019161060c565b820191906000526020600020905b8154815290600101906020018083116105ef57829003601f168201915b5050505050908060020180546106219061306d565b80601f016020809104026020016040519081016040528092919081815260200182805461064d9061306d565b801561069a5780601f1061066f5761010080835404028352916020019161069a565b820191906000526020600020905b81548152906001019060200180831161067d57829003601f168201915b5050505050908060030180546106af9061306d565b80601f01602080910402602001604051908101604052809291908181526020018280546106db9061306d565b80156107285780601f106106fd57610100808354040283529160200191610728565b820191906000526020600020905b81548152906001019060200180831161070b57829003601f168201915b50505050509080600401805461073d9061306d565b80601f01602080910402602001604051908101604052809291908181526020018280546107699061306d565b80156107b65780601f1061078b576101008083540402835291602001916107b6565b820191906000526020600020905b81548152906001019060200180831161079957829003601f168201915b5050505050905085565b600081815481106107d057600080fd5b9060005260206000200160009150905080546107eb9061306d565b80601f01602080910402602001604051908101604052809291908181526020018280546108179061306d565b80156108645780601f1061083957610100808354040283529160200191610864565b820191906000526020600020905b81548152906001019060200180831161084757829003601f168201915b505050505081565b60046040518060a001604052808773ffffffffffffffffffffffffffffffffffffffff16815260200186815260200185815260200184815260200183815250908060018154018082558091505060019003906000526020600020906005020160009091909190915060008201518160000160006101000a81548173ffffffffffffffffffffffffffffffffffffffff021916908373ffffffffffffffffffffffffffffffffffffffff1602179055506020820151816001019080519060200190610937929190612119565b506040820151816002019080519060200190610954929190612119565b506060820151816003019080519060200190610971929190612119565b50608082015181600401908051906020019061098e929190612119565b5050506040518060a001604052808673ffffffffffffffffffffffffffffffffffffffff16815260200185815260200184815260200183815260200182815250600260008773ffffffffffffffffffffffffffffffffffffffff1673ffffffffffffffffffffffffffffffffffffffff16815260200190815260200160002060008201518160000160006101000a81548173ffffffffffffffffffffffffffffffffffffffff021916908373ffffffffffffffffffffffffffffffffffffffff1602179055506020820151816001019080519060200190610a70929190612119565b506040820151816002019080519060200190610a8d929190612119565b506060820151816003019080519060200190610aaa929190612119565b506080820151816004019080519060200190610ac7929190612119565b509050507f153423fcdbfccd21d6b76fffcd2d466943beff738c20a1649cf73eec2c11c5ab8585858585604051610b02959493929190612b9a565b60405180910390a15050505050565b60008173ffffffffffffffffffffffffffffffffffffffff16319050919050565b606081604051602001610b4490612abe565b6040516020818303038152906040528051906020012081604051602001610b6b9190612aa7565b6040516020818303038152906040528051906020012014610bc1576040517f08c379a0000000000000000000000000000000000000000000000000000000008152600401610bb890612cee565b60405180910390fd5b60405180606001604052806034815260200161329e60349139915050919050565b6001828051602081018201805184825260208301602085012081835280955050505050508181548110610c1457600080fd5b90600052602060002001600091509150508054610c309061306d565b80601f0160208091040260200160405190810160405280929190818152602001828054610c5c9061306d565b8015610ca95780601f10610c7e57610100808354040283529160200191610ca9565b820191906000526020600020905b815481529060010190602001808311610c8c57829003601f168201915b505050505081565b60606006805480602002602001604051908101604052809291908181526020016000905b82821015610e4f57838290600052602060002090600402016040518060800160405290816000820160009054906101000a900473ffffffffffffffffffffffffffffffffffffffff1673ffffffffffffffffffffffffffffffffffffffff1673ffffffffffffffffffffffffffffffffffffffff1681526020016001820160009054906101000a900473ffffffffffffffffffffffffffffffffffffffff1673ffffffffffffffffffffffffffffffffffffffff1673ffffffffffffffffffffffffffffffffffffffff16815260200160028201548152602001600382018054610dbe9061306d565b80601f0160208091040260200160405190810160405280929190818152602001828054610dea9061306d565b8015610e375780601f10610e0c57610100808354040283529160200191610e37565b820191906000526020600020905b815481529060010190602001808311610e1a57829003601f168201915b50505050508152505081526020019060010190610cd5565b50505050905090565b60606004805480602002602001604051908101604052809291908181526020016000905b8282101561114c57838290600052602060002090600502016040518060a00160405290816000820160009054906101000a900473ffffffffffffffffffffffffffffffffffffffff1673ffffffffffffffffffffffffffffffffffffffff1673ffffffffffffffffffffffffffffffffffffffff168152602001600182018054610f059061306d565b80601f0160208091040260200160405190810160405280929190818152602001828054610f319061306d565b8015610f7e5780601f10610f5357610100808354040283529160200191610f7e565b820191906000526020600020905b815481529060010190602001808311610f6157829003601f168201915b50505050508152602001600282018054610f979061306d565b80601f0160208091040260200160405190810160405280929190818152602001828054610fc39061306d565b80156110105780601f10610fe557610100808354040283529160200191611010565b820191906000526020600020905b815481529060010190602001808311610ff357829003601f168201915b505050505081526020016003820180546110299061306d565b80601f01602080910402602001604051908101604052809291908181526020018280546110559061306d565b80156110a25780601f10611077576101008083540402835291602001916110a2565b820191906000526020600020905b81548152906001019060200180831161108557829003601f168201915b505050505081526020016004820180546110bb9061306d565b80601f01602080910402602001604051908101604052809291908181526020018280546110e79061306d565b80156111345780601f1061110957610100808354040283529160200191611134565b820191906000526020600020905b81548152906001019060200180831161111757829003601f168201915b50505050508152505081526020019060010190610e7c565b50505050905090565b60026020528060005260406000206000915090508060000160009054906101000a900473ffffffffffffffffffffffffffffffffffffffff169080600101805461119e9061306d565b80601f01602080910402602001604051908101604052809291908181526020018280546111ca9061306d565b80156112175780601f106111ec57610100808354040283529160200191611217565b820191906000526020600020905b8154815290600101906020018083116111fa57829003601f168201915b50505050509080600201805461122c9061306d565b80601f01602080910402602001604051908101604052809291908181526020018280546112589061306d565b80156112a55780601f1061127a576101008083540402835291602001916112a5565b820191906000526020600020905b81548152906001019060200180831161128857829003601f168201915b5050505050908060030180546112ba9061306d565b80601f01602080910402602001604051908101604052809291908181526020018280546112e69061306d565b80156113335780601f1061130857610100808354040283529160200191611333565b820191906000526020600020905b81548152906001019060200180831161131657829003601f168201915b5050505050908060040180546113489061306d565b80601f01602080910402602001604051908101604052809291908181526020018280546113749061306d565b80156113c15780601f10611396576101008083540402835291602001916113c1565b820191906000526020600020905b8154815290600101906020018083116113a457829003601f168201915b5050505050905085565b828180600360008473ffffffffffffffffffffffffffffffffffffffff1673ffffffffffffffffffffffffffffffffffffffff16815260200190815260200160002054121561144f576040517f08c379a000000000000000000000000000000000000000000000000000000000815260040161144690612cce565b60405180910390fd5b82600360008773ffffffffffffffffffffffffffffffffffffffff1673ffffffffffffffffffffffffffffffffffffffff168152602001908152602001600020600082825461149e9190612f51565b9250508190555082600360008673ffffffffffffffffffffffffffffffffffffffff1673ffffffffffffffffffffffffffffffffffffffff16815260200190815260200160002060008282546114f49190612ebd565b925050819055507f300a5968050d23e9c2350846680afe7b8ddd57f7cd78ee93497607d1e1eac40685858560405161152e93929190612aee565b60405180910390a15050505050565b606060018260405161154f9190612aa7565b9081526020016040518091039020805480602002602001604051908101604052809291908181526020016000905b8282101561162957838290600052602060002001805461159c9061306d565b80601f01602080910402602001604051908101604052809291908181526020018280546115c89061306d565b80156116155780601f106115ea57610100808354040283529160200191611615565b820191906000526020600020905b8154815290600101906020018083116115f857829003601f168201915b50505050508152602001906001019061157d565b505050509050919050565b606060005b6004805490508110156118cb5760006003600060048481548110611686577f4e487b7100000000000000000000000000000000000000000000000000000000600052603260045260246000fd5b906000526020600020906005020160000160009054906101000a900473ffffffffffffffffffffffffffffffffffffffff1673ffffffffffffffffffffffffffffffffffffffff1673ffffffffffffffffffffffffffffffffffffffff1681526020019081526020016000205413156118b8576005604051806040016040528060048481548110611740577f4e487b7100000000000000000000000000000000000000000000000000000000600052603260045260246000fd5b906000526020600020906005020160000160009054906101000a900473ffffffffffffffffffffffffffffffffffffffff1673ffffffffffffffffffffffffffffffffffffffff16815260200160036000600486815481106117cb577f4e487b7100000000000000000000000000000000000000000000000000000000600052603260045260246000fd5b906000526020600020906005020160000160009054906101000a900473ffffffffffffffffffffffffffffffffffffffff1673ffffffffffffffffffffffffffffffffffffffff1673ffffffffffffffffffffffffffffffffffffffff16815260200190815260200160002054815250908060018154018082558091505060019003906000526020600020906002020160009091909190915060008201518160000160006101000a81548173ffffffffffffffffffffffffffffffffffffffff021916908373ffffffffffffffffffffffffffffffffffffffff1602179055506020820151816001015550505b80806118c3906130d0565b915050611639565b506005805480602002602001604051908101604052809291908181526020016000905b8282101561198057838290600052602060002090600202016040518060400160405290816000820160009054906101000a900473ffffffffffffffffffffffffffffffffffffffff1673ffffffffffffffffffffffffffffffffffffffff1673ffffffffffffffffffffffffffffffffffffffff168152602001600182015481525050815260200190600101906118ee565b50505050905090565b600033905090565b60606000805480602002602001604051908101604052809291908181526020016000905b82821015611a615783829060005260206000200180546119d49061306d565b80601f0160208091040260200160405190810160405280929190818152602001828054611a009061306d565b8015611a4d5780601f10611a2257610100808354040283529160200191611a4d565b820191906000526020600020905b815481529060010190602001808311611a3057829003601f168201915b5050505050815260200190600101906119b5565b50505050905090565b600081908060018154018082558091505060019003906000526020600020016000909190919091509080519060200190611aa5929190612119565b5050565b611ab161219f565b600260008373ffffffffffffffffffffffffffffffffffffffff1673ffffffffffffffffffffffffffffffffffffffff1681526020019081526020016000206040518060a00160405290816000820160009054906101000a900473ffffffffffffffffffffffffffffffffffffffff1673ffffffffffffffffffffffffffffffffffffffff1673ffffffffffffffffffffffffffffffffffffffff168152602001600182018054611b619061306d565b80601f0160208091040260200160405190810160405280929190818152602001828054611b8d9061306d565b8015611bda5780601f10611baf57610100808354040283529160200191611bda565b820191906000526020600020905b815481529060010190602001808311611bbd57829003601f168201915b50505050508152602001600282018054611bf39061306d565b80601f0160208091040260200160405190810160405280929190818152602001828054611c1f9061306d565b8015611c6c5780601f10611c4157610100808354040283529160200191611c6c565b820191906000526020600020905b815481529060010190602001808311611c4f57829003601f168201915b50505050508152602001600382018054611c859061306d565b80601f0160208091040260200160405190810160405280929190818152602001828054611cb19061306d565b8015611cfe5780601f10611cd357610100808354040283529160200191611cfe565b820191906000526020600020905b815481529060010190602001808311611ce157829003601f168201915b50505050508152602001600482018054611d179061306d565b80601f0160208091040260200160405190810160405280929190818152602001828054611d439061306d565b8015611d905780601f10611d6557610100808354040283529160200191611d90565b820191906000526020600020905b815481529060010190602001808311611d7357829003601f168201915b5050505050815250509050919050565b600182604051611db09190612aa7565b908152602001604051809103902081908060018154018082558091505060019003906000526020600020016000909190919091509080519060200190611df7929190612119565b505050565b6000600360008373ffffffffffffffffffffffffffffffffffffffff1673ffffffffffffffffffffffffffffffffffffffff168152602001908152602001600020549050919050565b600660405180608001604052808573ffffffffffffffffffffffffffffffffffffffff1681526020018473ffffffffffffffffffffffffffffffffffffffff16815260200142815260200183815250908060018154018082558091505060019003906000526020600020906004020160009091909190915060008201518160000160006101000a81548173ffffffffffffffffffffffffffffffffffffffff021916908373ffffffffffffffffffffffffffffffffffffffff16021790555060208201518160010160006101000a81548173ffffffffffffffffffffffffffffffffffffffff021916908373ffffffffffffffffffffffffffffffffffffffff160217905550604082015181600201556060820151816003019080519060200190611f71929190612119565b5050507f1acfaba5e83bb3f0d7014b65619dfa19db81310c7aacda1cf5be5bdf72c152a083834284604051611fa99493929190612b25565b60405180910390a1505050565b60068181548110611fc657600080fd5b90600052602060002090600402016000915090508060000160009054906101000a900473ffffffffffffffffffffffffffffffffffffffff16908060010160009054906101000a900473ffffffffffffffffffffffffffffffffffffffff169080600201549080600301805461203b9061306d565b80601f01602080910402602001604051908101604052809291908181526020018280546120679061306d565b80156120b45780601f10612089576101008083540402835291602001916120b4565b820191906000526020600020905b81548152906001019060200180831161209757829003601f168201915b5050505050905084565b6000806706f05b59d3b20000905080600360008573ffffffffffffffffffffffffffffffffffffffff1673ffffffffffffffffffffffffffffffffffffffff1681526020019081526020016000208190555080915050919050565b8280546121259061306d565b90600052602060002090601f016020900481019282612147576000855561218e565b82601f1061216057805160ff191683800117855561218e565b8280016001018555821561218e579182015b8281111561218d578251825591602001919060010190612172565b5b50905061219b91906121e4565b5090565b6040518060a00160405280600073ffffffffffffffffffffffffffffffffffffffff168152602001606081526020016060815260200160608152602001606081525090565b5b808211156121fd5760008160009055506001016121e5565b5090565b600061221461220f84612d70565b612d4b565b90508281526020810184848401111561222c57600080fd5b61223784828561302b565b509392505050565b60008135905061224e81613258565b92915050565b6000813590506122638161326f565b92915050565b600082601f83011261227a57600080fd5b813561228a848260208601612201565b91505092915050565b6000813590506122a281613286565b92915050565b6000602082840312156122ba57600080fd5b60006122c88482850161223f565b91505092915050565b6000806000606084860312156122e657600080fd5b60006122f48682870161223f565b93505060206123058682870161223f565b925050604061231686828701612254565b9150509250925092565b60008060006060848603121561233557600080fd5b60006123438682870161223f565b93505060206123548682870161223f565b925050604084013567ffffffffffffffff81111561237157600080fd5b61237d86828701612269565b9150509250925092565b600080600080600060a0868803121561239f57600080fd5b60006123ad8882890161223f565b955050602086013567ffffffffffffffff8111156123ca57600080fd5b6123d688828901612269565b945050604086013567ffffffffffffffff8111156123f357600080fd5b6123ff88828901612269565b935050606086013567ffffffffffffffff81111561241c57600080fd5b61242888828901612269565b925050608086013567ffffffffffffffff81111561244557600080fd5b61245188828901612269565b9150509295509295909350565b60006020828403121561247057600080fd5b600082013567ffffffffffffffff81111561248a57600080fd5b61249684828501612269565b91505092915050565b600080604083850312156124b257600080fd5b600083013567ffffffffffffffff8111156124cc57600080fd5b6124d885828601612269565b925050602083013567ffffffffffffffff8111156124f557600080fd5b61250185828601612269565b9150509250929050565b6000806040838503121561251e57600080fd5b600083013567ffffffffffffffff81111561253857600080fd5b61254485828601612269565b925050602061255585828601612293565b9150509250929050565b60006020828403121561257157600080fd5b600061257f84828501612293565b91505092915050565b600061259483836127d5565b905092915050565b60006125a883836128e1565b905092915050565b60006125bc8383612944565b60408301905092915050565b60006125d48383612973565b905092915050565b6125e581612fe5565b82525050565b6125f481612fe5565b82525050565b600061260582612de1565b61260f8185612e4c565b93508360208202850161262185612da1565b8060005b8581101561265d578484038952815161263e8582612588565b945061264983612e18565b925060208a01995050600181019050612625565b50829750879550505050505092915050565b600061267a82612dec565b6126848185612e5d565b93508360208202850161269685612db1565b8060005b858110156126d257848403895281516126b3858261259c565b94506126be83612e25565b925060208a0199505060018101905061269a565b50829750879550505050505092915050565b60006126ef82612df7565b6126f98185612e6e565b935061270483612dc1565b8060005b8381101561273557815161271c88826125b0565b975061272783612e32565b925050600181019050612708565b5085935050505092915050565b600061274d82612e02565b6127578185612e7f565b93508360208202850161276985612dd1565b8060005b858110156127a5578484038952815161278685826125c8565b945061279183612e3f565b925060208a0199505060018101905061276d565b50829750879550505050505092915050565b6127c081612ff7565b82525050565b6127cf81612ff7565b82525050565b60006127e082612e0d565b6127ea8185612e90565b93506127fa81856020860161303a565b612803816131a6565b840191505092915050565b600061281982612e0d565b6128238185612ea1565b935061283381856020860161303a565b61283c816131a6565b840191505092915050565b600061285282612e0d565b61285c8185612eb2565b935061286c81856020860161303a565b80840191505092915050565b6000612885600b83612eb2565b9150612890826131b7565b600b82019050919050565b60006128a8601683612ea1565b91506128b3826131e0565b602082019050919050565b60006128cb604083612ea1565b91506128d682613209565b604082019050919050565b60006080830160008301516128f960008601826125dc565b50602083015161290c60208601826125dc565b50604083015161291f6040860182612a89565b506060830151848203606086015261293782826127d5565b9150508091505092915050565b60408201600082015161295a60008501826125dc565b50602082015161296d60208501826127b7565b50505050565b600060a08301600083015161298b60008601826125dc565b50602083015184820360208601526129a382826127d5565b915050604083015184820360408601526129bd82826127d5565b915050606083015184820360608601526129d782826127d5565b915050608083015184820360808601526129f182826127d5565b9150508091505092915050565b600060a083016000830151612a1660008601826125dc565b5060208301518482036020860152612a2e82826127d5565b91505060408301518482036040860152612a4882826127d5565b91505060608301518482036060860152612a6282826127d5565b91505060808301518482036080860152612a7c82826127d5565b9150508091505092915050565b612a9281613021565b82525050565b612aa181613021565b82525050565b6000612ab38284612847565b915081905092915050565b6000612ac982612878565b9150819050919050565b6000602082019050612ae860008301846125eb565b92915050565b6000606082019050612b0360008301866125eb565b612b1060208301856125eb565b612b1d60408301846127c6565b949350505050565b6000608082019050612b3a60008301876125eb565b612b4760208301866125eb565b612b546040830185612a98565b8181036060830152612b66818461280e565b905095945050505050565b6000604082019050612b8660008301856125eb565b612b9360208301846127c6565b9392505050565b600060a082019050612baf60008301886125eb565b8181036020830152612bc1818761280e565b90508181036040830152612bd5818661280e565b90508181036060830152612be9818561280e565b90508181036080830152612bfd818461280e565b90509695505050505050565b60006020820190508181036000830152612c2381846125fa565b905092915050565b60006020820190508181036000830152612c45818461266f565b905092915050565b60006020820190508181036000830152612c6781846126e4565b905092915050565b60006020820190508181036000830152612c898184612742565b905092915050565b6000602082019050612ca660008301846127c6565b92915050565b60006020820190508181036000830152612cc6818461280e565b905092915050565b60006020820190508181036000830152612ce78161289b565b9050919050565b60006020820190508181036000830152612d07816128be565b9050919050565b60006020820190508181036000830152612d2881846129fe565b905092915050565b6000602082019050612d456000830184612a98565b92915050565b6000612d55612d66565b9050612d61828261309f565b919050565b6000604051905090565b600067ffffffffffffffff821115612d8b57612d8a613177565b5b612d94826131a6565b9050602081019050919050565b6000819050602082019050919050565b6000819050602082019050919050565b6000819050602082019050919050565b6000819050602082019050919050565b600081519050919050565b600081519050919050565b600081519050919050565b600081519050919050565b600081519050919050565b6000602082019050919050565b6000602082019050919050565b6000602082019050919050565b6000602082019050919050565b600082825260208201905092915050565b600082825260208201905092915050565b600082825260208201905092915050565b600082825260208201905092915050565b600082825260208201905092915050565b600082825260208201905092915050565b600081905092915050565b6000612ec882612ff7565b9150612ed383612ff7565b9250817f7fffffffffffffffffffffffffffffffffffffffffffffffffffffffffffffff03831360008312151615612f0e57612f0d613119565b5b817f8000000000000000000000000000000000000000000000000000000000000000038312600083121615612f4657612f45613119565b5b828201905092915050565b6000612f5c82612ff7565b9150612f6783612ff7565b9250827f800000000000000000000000000000000000000000000000000000000000000001821260008412151615612fa257612fa1613119565b5b827f7fffffffffffffffffffffffffffffffffffffffffffffffffffffffffffffff018213600084121615612fda57612fd9613119565b5b828203905092915050565b6000612ff082613001565b9050919050565b6000819050919050565b600073ffffffffffffffffffffffffffffffffffffffff82169050919050565b6000819050919050565b82818337600083830152505050565b60005b8381101561305857808201518184015260208101905061303d565b83811115613067576000848401525b50505050565b6000600282049050600182168061308557607f821691505b6020821081141561309957613098613148565b5b50919050565b6130a8826131a6565b810181811067ffffffffffffffff821117156130c7576130c6613177565b5b80604052505050565b60006130db82613021565b91507fffffffffffffffffffffffffffffffffffffffffffffffffffffffffffffffff82141561310e5761310d613119565b5b600182019050919050565b7f4e487b7100000000000000000000000000000000000000000000000000000000600052601160045260246000fd5b7f4e487b7100000000000000000000000000000000000000000000000000000000600052602260045260246000fd5b7f4e487b7100000000000000000000000000000000000000000000000000000000600052604160045260246000fd5b6000601f19601f8301169050919050565b7f68656c6c6f20776f726c64000000000000000000000000000000000000000000600082015250565b7f496e73756666696369656e742066756e64732021212100000000000000000000600082015250565b7f74686520696e707574206d6573736167652063616e6e6f74206d6f646966792060008201527f746869732066756e6374696f6e2e20547279202768656c6c6f20776f726c6427602082015250565b61326181612fe5565b811461326c57600080fd5b50565b61327881612ff7565b811461328357600080fd5b50565b61328f81613021565b811461329a57600080fd5b5056fe48656c6c6f20576f726c642c20746869732069732061206d6f64696669657220746573742066726f6d20626c6f636b636861696ea264697066735822122023b6c5ff2cff9537179db477df9d72f7f2d63ae5296f805d1e034558112227b064736f6c63430008040033",
  "linkReferences": {},
  "deployedLinkReferences": {}
}